{
  "_format": "hh-sol-artifact-1",
  "contractName": "TokenExchange",
  "sourceName": "contracts/exchange.sol",
  "abi": [
    {
      "inputs": [],
      "stateMutability": "nonpayable",
      "type": "constructor"
    },
    {
      "anonymous": false,
      "inputs": [
        {
          "indexed": true,
          "internalType": "address",
          "name": "previousOwner",
          "type": "address"
        },
        {
          "indexed": true,
          "internalType": "address",
          "name": "newOwner",
          "type": "address"
        }
      ],
      "name": "OwnershipTransferred",
      "type": "event"
    },
    {
      "inputs": [
        {
          "internalType": "uint256",
          "name": "max_exchange_rate",
          "type": "uint256"
        },
        {
          "internalType": "uint256",
          "name": "min_exchange_rate",
          "type": "uint256"
        }
      ],
      "name": "addLiquidity",
      "outputs": [],
      "stateMutability": "payable",
      "type": "function"
    },
    {
      "inputs": [
        {
          "internalType": "uint256",
          "name": "amountTokens",
          "type": "uint256"
        }
      ],
      "name": "createPool",
      "outputs": [],
      "stateMutability": "payable",
      "type": "function"
    },
    {
      "inputs": [],
      "name": "exchange_name",
      "outputs": [
        {
          "internalType": "string",
          "name": "",
          "type": "string"
        }
      ],
      "stateMutability": "view",
      "type": "function"
    },
    {
      "inputs": [],
      "name": "getSwapFee",
      "outputs": [
        {
          "internalType": "uint256",
          "name": "",
          "type": "uint256"
        },
        {
          "internalType": "uint256",
          "name": "",
          "type": "uint256"
        }
      ],
      "stateMutability": "view",
      "type": "function"
    },
    {
      "inputs": [],
      "name": "owner",
      "outputs": [
        {
          "internalType": "address",
          "name": "",
          "type": "address"
        }
      ],
      "stateMutability": "view",
      "type": "function"
    },
    {
      "inputs": [
        {
          "internalType": "uint256",
          "name": "max_exchange_rate",
          "type": "uint256"
        },
        {
          "internalType": "uint256",
          "name": "min_exchange_rate",
          "type": "uint256"
        }
      ],
      "name": "removeAllLiquidity",
      "outputs": [],
      "stateMutability": "payable",
      "type": "function"
    },
    {
      "inputs": [
        {
          "internalType": "uint256",
          "name": "amountETH",
          "type": "uint256"
        },
        {
          "internalType": "uint256",
          "name": "max_exchange_rate",
          "type": "uint256"
        },
        {
          "internalType": "uint256",
          "name": "min_exchange_rate",
          "type": "uint256"
        }
      ],
      "name": "removeLiquidity",
      "outputs": [],
      "stateMutability": "payable",
      "type": "function"
    },
    {
      "inputs": [],
      "name": "renounceOwnership",
      "outputs": [],
      "stateMutability": "nonpayable",
      "type": "function"
    },
    {
      "inputs": [
        {
          "internalType": "uint256",
          "name": "max_exchange_rate",
          "type": "uint256"
        }
      ],
      "name": "swapETHForTokens",
      "outputs": [],
      "stateMutability": "payable",
      "type": "function"
    },
    {
      "inputs": [
        {
          "internalType": "uint256",
          "name": "amountTokens",
          "type": "uint256"
        },
        {
          "internalType": "uint256",
          "name": "max_exchange_rate",
          "type": "uint256"
        }
      ],
      "name": "swapTokensForETH",
      "outputs": [],
      "stateMutability": "payable",
      "type": "function"
    },
    {
      "inputs": [],
      "name": "token",
      "outputs": [
        {
          "internalType": "contract Token",
          "name": "",
          "type": "address"
        }
      ],
      "stateMutability": "view",
      "type": "function"
    },
    {
      "inputs": [
        {
          "internalType": "address",
          "name": "newOwner",
          "type": "address"
        }
      ],
      "name": "transferOwnership",
      "outputs": [],
      "stateMutability": "nonpayable",
      "type": "function"
    }
  ],
  "bytecode": "0x60806040526040518060400160405280600a81526020017f4d7945786368616e676500000000000000000000000000000000000000000000815250600190816200004a919062000491565b50735fbdb2315678afecb367f032d93f642f64180aa3600260006101000a81548173ffffffffffffffffffffffffffffffffffffffff021916908373ffffffffffffffffffffffffffffffffffffffff160217905550600260009054906101000a900473ffffffffffffffffffffffffffffffffffffffff16600360006101000a81548173ffffffffffffffffffffffffffffffffffffffff021916908373ffffffffffffffffffffffffffffffffffffffff16021790555060006004556000600555600060085560006009553480156200012457600080fd5b5062000145620001396200014b60201b60201c565b6200015360201b60201c565b62000578565b600033905090565b60008060009054906101000a900473ffffffffffffffffffffffffffffffffffffffff169050816000806101000a81548173ffffffffffffffffffffffffffffffffffffffff021916908373ffffffffffffffffffffffffffffffffffffffff1602179055508173ffffffffffffffffffffffffffffffffffffffff168173ffffffffffffffffffffffffffffffffffffffff167f8be0079c531659141344cd1fd0a4f28419497f9722a3daafe3b4186f6b6457e060405160405180910390a35050565b600081519050919050565b7f4e487b7100000000000000000000000000000000000000000000000000000000600052604160045260246000fd5b7f4e487b7100000000000000000000000000000000000000000000000000000000600052602260045260246000fd5b600060028204905060018216806200029957607f821691505b602082108103620002af57620002ae62000251565b5b50919050565b60008190508160005260206000209050919050565b60006020601f8301049050919050565b600082821b905092915050565b600060088302620003197fffffffffffffffffffffffffffffffffffffffffffffffffffffffffffffffff82620002da565b620003258683620002da565b95508019841693508086168417925050509392505050565b6000819050919050565b6000819050919050565b6000620003726200036c62000366846200033d565b62000347565b6200033d565b9050919050565b6000819050919050565b6200038e8362000351565b620003a66200039d8262000379565b848454620002e7565b825550505050565b600090565b620003bd620003ae565b620003ca81848462000383565b505050565b5b81811015620003f257620003e6600082620003b3565b600181019050620003d0565b5050565b601f82111562000441576200040b81620002b5565b6200041684620002ca565b8101602085101562000426578190505b6200043e6200043585620002ca565b830182620003cf565b50505b505050565b600082821c905092915050565b6000620004666000198460080262000446565b1980831691505092915050565b600062000481838362000453565b9150826002028217905092915050565b6200049c8262000217565b67ffffffffffffffff811115620004b857620004b762000222565b5b620004c4825462000280565b620004d1828285620003f6565b600060209050601f831160018114620005095760008415620004f4578287015190505b62000500858262000473565b86555062000570565b601f1984166200051986620002b5565b60005b8281101562000543578489015182556001820191506020850194506020810190506200051c565b868310156200056357848901516200055f601f89168262000453565b8355505b6001600288020188555050505b505050505050565b61237680620005886000396000f3fe6080604052600436106100a75760003560e01c80639cd441da116100645780639cd441da1461015e578063a22280a61461017a578063d4cadf6814610196578063f2fde38b146101c2578063f694f7d1146101eb578063fc0c546a14610216576100a7565b80632eab2841146100ac57806358ad6de4146100c8578063715018a6146100e45780638259e6a0146100fb578063857620e1146101175780638da5cb5b14610133575b600080fd5b6100c660048036038101906100c1919061194f565b610241565b005b6100e260048036038101906100dd919061197c565b61038e565b005b3480156100f057600080fd5b506100f96103f6565b005b6101156004803603810190610110919061194f565b61040a565b005b610131600480360381019061012c91906119bc565b61076b565b005b34801561013f57600080fd5b50610148610d4e565b6040516101559190611a50565b60405180910390f35b6101786004803603810190610173919061197c565b610d77565b005b610194600480360381019061018f919061197c565b611306565b005b3480156101a257600080fd5b506101ab611545565b6040516101b9929190611a7a565b60405180910390f35b3480156101ce57600080fd5b506101e960048036038101906101e49190611acf565b611556565b005b3480156101f757600080fd5b506102006115d9565b60405161020d9190611b8c565b60405180910390f35b34801561022257600080fd5b5061022b611667565b6040516102389190611c0d565b60405180910390f35b806004546005546103e86102559190611c57565b61025f9190611cc8565b111561026a57600080fd5b60006005546004546103e861027f9190611c57565b6102899190611cc8565b905060006103e8823461029c9190611c57565b6102a69190611cc8565b905060045481106102b657600080fd5b600360009054906101000a900473ffffffffffffffffffffffffffffffffffffffff1673ffffffffffffffffffffffffffffffffffffffff1663a9059cbb33836040518363ffffffff1660e01b8152600401610313929190611cf9565b6020604051808303816000875af1158015610332573d6000803e3d6000fd5b505050506040513d601f19601f820116820180604052508101906103569190611d5a565b5034600560008282546103699190611d87565b9250508190555080600460008282546103829190611dbb565b92505081905550505050565b6103f26103e8600554600660003373ffffffffffffffffffffffffffffffffffffffff1673ffffffffffffffffffffffffffffffffffffffff168152602001908152602001600020546103e19190611c57565b6103eb9190611cc8565b838361076b565b5050565b6103fe61168d565b610408600061170b565b565b61041261168d565b600060045414610457576040517f08c379a000000000000000000000000000000000000000000000000000000000815260040161044e90611e3b565b60405180910390fd5b60006005541461049c576040517f08c379a000000000000000000000000000000000000000000000000000000000815260040161049390611ea7565b60405180910390fd5b600034116104df576040517f08c379a00000000000000000000000000000000000000000000000000000000081526004016104d690611f13565b60405180910390fd5b6000600360009054906101000a900473ffffffffffffffffffffffffffffffffffffffff1673ffffffffffffffffffffffffffffffffffffffff166370a08231336040518263ffffffff1660e01b815260040161053c9190611a50565b602060405180830381865afa158015610559573d6000803e3d6000fd5b505050506040513d601f19601f8201168201806040525081019061057d9190611f48565b9050808211156105c2576040517f08c379a00000000000000000000000000000000000000000000000000000000081526004016105b990611fe7565b60405180910390fd5b60008211610605576040517f08c379a00000000000000000000000000000000000000000000000000000000081526004016105fc90612053565b60405180910390fd5b600360009054906101000a900473ffffffffffffffffffffffffffffffffffffffff1673ffffffffffffffffffffffffffffffffffffffff166323b872dd3330856040518463ffffffff1660e01b815260040161066493929190612073565b6020604051808303816000875af1158015610683573d6000803e3d6000fd5b505050506040513d601f19601f820116820180604052508101906106a79190611d5a565b50600360009054906101000a900473ffffffffffffffffffffffffffffffffffffffff1673ffffffffffffffffffffffffffffffffffffffff166370a08231306040518263ffffffff1660e01b81526004016107039190611a50565b602060405180830381865afa158015610720573d6000803e3d6000fd5b505050506040513d601f19601f820116820180604052508101906107449190611f48565b600481905550346005819055506005546004546107619190611c57565b600a819055505050565b600554831061077957600080fd5b600554600660003373ffffffffffffffffffffffffffffffffffffffff1673ffffffffffffffffffffffffffffffffffffffff168152602001908152602001600020546107c69190611c57565b6103e8846107d49190611c57565b11156107df57600080fd5b60006005546004546103e86107f49190611c57565b6107fe9190611cc8565b90508281111561080d57600080fd5b8181101561081a57600080fd5b60006103e8828661082b9190611c57565b6108359190611cc8565b9050600454811061084557600080fd5b600454600660003373ffffffffffffffffffffffffffffffffffffffff1673ffffffffffffffffffffffffffffffffffffffff168152602001908152602001600020546108929190611c57565b6103e8826108a09190611c57565b11156108ab57600080fd5b600360009054906101000a900473ffffffffffffffffffffffffffffffffffffffff1673ffffffffffffffffffffffffffffffffffffffff1663a9059cbb33836040518363ffffffff1660e01b8152600401610908929190611cf9565b6020604051808303816000875af1158015610927573d6000803e3d6000fd5b505050506040513d601f19601f8201168201806040525081019061094b9190611d5a565b503373ffffffffffffffffffffffffffffffffffffffff166108fc869081150290604051600060405180830381858888f19350505050158015610992573d6000803e3d6000fd5b5084600560008282546109a59190611dbb565b9250508190555080600460008282546109be9190611dbb565b925050819055506000805b600780549050811015610b87573373ffffffffffffffffffffffffffffffffffffffff1660078281548110610a0157610a006120aa565b5b9060005260206000200160009054906101000a900473ffffffffffffffffffffffffffffffffffffffff1673ffffffffffffffffffffffffffffffffffffffff1614610b705782600454610a559190611dbb565b6004546006600060078581548110610a7057610a6f6120aa565b5b9060005260206000200160009054906101000a900473ffffffffffffffffffffffffffffffffffffffff1673ffffffffffffffffffffffffffffffffffffffff1673ffffffffffffffffffffffffffffffffffffffff16815260200190815260200160002054610ae09190611c57565b610aea9190611cc8565b6006600060078481548110610b0257610b016120aa565b5b9060005260206000200160009054906101000a900473ffffffffffffffffffffffffffffffffffffffff1673ffffffffffffffffffffffffffffffffffffffff1673ffffffffffffffffffffffffffffffffffffffff16815260200190815260200160002081905550610b74565b8091505b8080610b7f906120d9565b9150506109c9565b506004546103e883610b999190611c57565b83600454610ba79190611d87565b600660003373ffffffffffffffffffffffffffffffffffffffff1673ffffffffffffffffffffffffffffffffffffffff16815260200190815260200160002054610bf19190611c57565b610bfb9190611dbb565b610c059190611cc8565b600660003373ffffffffffffffffffffffffffffffffffffffff1673ffffffffffffffffffffffffffffffffffffffff16815260200190815260200160002081905550600360009054906101000a900473ffffffffffffffffffffffffffffffffffffffff1673ffffffffffffffffffffffffffffffffffffffff166370a08231306040518263ffffffff1660e01b8152600401610ca39190611a50565b602060405180830381865afa158015610cc0573d6000803e3d6000fd5b505050506040513d601f19601f82011682018060405250810190610ce49190611f48565b47610cef9190611c57565b600a819055506000600660003373ffffffffffffffffffffffffffffffffffffffff1673ffffffffffffffffffffffffffffffffffffffff1681526020019081526020016000205403610d4657610d45816117cf565b5b505050505050565b60008060009054906101000a900473ffffffffffffffffffffffffffffffffffffffff16905090565b60006005546004546103e8610d8c9190611c57565b610d969190611cc8565b905082811115610da557600080fd5b81811015610db257600080fd5b60006103e88234610dc39190611c57565b610dcd9190611cc8565b905080600360009054906101000a900473ffffffffffffffffffffffffffffffffffffffff1673ffffffffffffffffffffffffffffffffffffffff166370a08231336040518263ffffffff1660e01b8152600401610e2b9190611a50565b602060405180830381865afa158015610e48573d6000803e3d6000fd5b505050506040513d601f19601f82011682018060405250810190610e6c9190611f48565b1015610e7757600080fd5b600360009054906101000a900473ffffffffffffffffffffffffffffffffffffffff1673ffffffffffffffffffffffffffffffffffffffff166323b872dd3330846040518463ffffffff1660e01b8152600401610ed693929190612073565b6020604051808303816000875af1158015610ef5573d6000803e3d6000fd5b505050506040513d601f19601f82011682018060405250810190610f199190611d5a565b503460056000828254610f2c9190611d87565b925050819055508060046000828254610f459190611d87565b9250508190555060006001905060005b600780549050811015611114573373ffffffffffffffffffffffffffffffffffffffff1660078281548110610f8d57610f8c6120aa565b5b9060005260206000200160009054906101000a900473ffffffffffffffffffffffffffffffffffffffff1673ffffffffffffffffffffffffffffffffffffffff16146110fc5760045483600454610fe49190611dbb565b6006600060078581548110610ffc57610ffb6120aa565b5b9060005260206000200160009054906101000a900473ffffffffffffffffffffffffffffffffffffffff1673ffffffffffffffffffffffffffffffffffffffff1673ffffffffffffffffffffffffffffffffffffffff1681526020019081526020016000205461106c9190611c57565b6110769190611cc8565b600660006007848154811061108e5761108d6120aa565b5b9060005260206000200160009054906101000a900473ffffffffffffffffffffffffffffffffffffffff1673ffffffffffffffffffffffffffffffffffffffff1673ffffffffffffffffffffffffffffffffffffffff16815260200190815260200160002081905550611101565b600091505b808061110c906120d9565b915050610f55565b50600454826004546111269190611dbb565b600660003373ffffffffffffffffffffffffffffffffffffffff1673ffffffffffffffffffffffffffffffffffffffff168152602001908152602001600020546111709190611c57565b61117a9190611cc8565b600454836103e861118b9190611c57565b6111959190611cc8565b61119f9190611d87565b600660003373ffffffffffffffffffffffffffffffffffffffff1673ffffffffffffffffffffffffffffffffffffffff16815260200190815260200160002081905550600360009054906101000a900473ffffffffffffffffffffffffffffffffffffffff1673ffffffffffffffffffffffffffffffffffffffff166370a08231306040518263ffffffff1660e01b815260040161123d9190611a50565b602060405180830381865afa15801561125a573d6000803e3d6000fd5b505050506040513d601f19601f8201168201806040525081019061127e9190611f48565b476112899190611c57565b600a8190555060011515811515036112ff576007339080600181540180825580915050600190039060005260206000200160009091909190916101000a81548173ffffffffffffffffffffffffffffffffffffffff021916908373ffffffffffffffffffffffffffffffffffffffff1602179055505b5050505050565b806005546004546103e861131a9190611c57565b6113249190611cc8565b111561132f57600080fd5b60006004546005546103e86113449190611c57565b61134e9190611cc8565b905060006103e882856113619190611c57565b61136b9190611cc8565b905083600360009054906101000a900473ffffffffffffffffffffffffffffffffffffffff1673ffffffffffffffffffffffffffffffffffffffff166370a08231336040518263ffffffff1660e01b81526004016113c99190611a50565b602060405180830381865afa1580156113e6573d6000803e3d6000fd5b505050506040513d601f19601f8201168201806040525081019061140a9190611f48565b101561141557600080fd5b600554811061142357600080fd5b3373ffffffffffffffffffffffffffffffffffffffff166108fc829081150290604051600060405180830381858888f19350505050158015611469573d6000803e3d6000fd5b50600360009054906101000a900473ffffffffffffffffffffffffffffffffffffffff1673ffffffffffffffffffffffffffffffffffffffff166323b872dd3330876040518463ffffffff1660e01b81526004016114c993929190612073565b6020604051808303816000875af11580156114e8573d6000803e3d6000fd5b505050506040513d601f19601f8201168201806040525081019061150c9190611d5a565b50806005600082825461151f9190611dbb565b9250508190555083600460008282546115389190611d87565b9250508190555050505050565b600080600854600954915091509091565b61155e61168d565b600073ffffffffffffffffffffffffffffffffffffffff168173ffffffffffffffffffffffffffffffffffffffff16036115cd576040517f08c379a00000000000000000000000000000000000000000000000000000000081526004016115c490612193565b60405180910390fd5b6115d68161170b565b50565b600180546115e6906121e2565b80601f0160208091040260200160405190810160405280929190818152602001828054611612906121e2565b801561165f5780601f106116345761010080835404028352916020019161165f565b820191906000526020600020905b81548152906001019060200180831161164257829003601f168201915b505050505081565b600360009054906101000a900473ffffffffffffffffffffffffffffffffffffffff1681565b61169561190c565b73ffffffffffffffffffffffffffffffffffffffff166116b3610d4e565b73ffffffffffffffffffffffffffffffffffffffff1614611709576040517f08c379a00000000000000000000000000000000000000000000000000000000081526004016117009061225f565b60405180910390fd5b565b60008060009054906101000a900473ffffffffffffffffffffffffffffffffffffffff169050816000806101000a81548173ffffffffffffffffffffffffffffffffffffffff021916908373ffffffffffffffffffffffffffffffffffffffff1602179055508173ffffffffffffffffffffffffffffffffffffffff168173ffffffffffffffffffffffffffffffffffffffff167f8be0079c531659141344cd1fd0a4f28419497f9722a3daafe3b4186f6b6457e060405160405180910390a35050565b6007805490508110611816576040517f08c379a000000000000000000000000000000000000000000000000000000000815260040161180d906122f1565b60405180910390fd5b6007600160078054905061182a9190611dbb565b8154811061183b5761183a6120aa565b5b9060005260206000200160009054906101000a900473ffffffffffffffffffffffffffffffffffffffff166007828154811061187a576118796120aa565b5b9060005260206000200160006101000a81548173ffffffffffffffffffffffffffffffffffffffff021916908373ffffffffffffffffffffffffffffffffffffffff16021790555060078054806118d4576118d3612311565b5b6001900381819060005260206000200160006101000a81549073ffffffffffffffffffffffffffffffffffffffff0219169055905550565b600033905090565b600080fd5b6000819050919050565b61192c81611919565b811461193757600080fd5b50565b60008135905061194981611923565b92915050565b60006020828403121561196557611964611914565b5b60006119738482850161193a565b91505092915050565b6000806040838503121561199357611992611914565b5b60006119a18582860161193a565b92505060206119b28582860161193a565b9150509250929050565b6000806000606084860312156119d5576119d4611914565b5b60006119e38682870161193a565b93505060206119f48682870161193a565b9250506040611a058682870161193a565b9150509250925092565b600073ffffffffffffffffffffffffffffffffffffffff82169050919050565b6000611a3a82611a0f565b9050919050565b611a4a81611a2f565b82525050565b6000602082019050611a656000830184611a41565b92915050565b611a7481611919565b82525050565b6000604082019050611a8f6000830185611a6b565b611a9c6020830184611a6b565b9392505050565b611aac81611a2f565b8114611ab757600080fd5b50565b600081359050611ac981611aa3565b92915050565b600060208284031215611ae557611ae4611914565b5b6000611af384828501611aba565b91505092915050565b600081519050919050565b600082825260208201905092915050565b60005b83811015611b36578082015181840152602081019050611b1b565b60008484015250505050565b6000601f19601f8301169050919050565b6000611b5e82611afc565b611b688185611b07565b9350611b78818560208601611b18565b611b8181611b42565b840191505092915050565b60006020820190508181036000830152611ba68184611b53565b905092915050565b6000819050919050565b6000611bd3611bce611bc984611a0f565b611bae565b611a0f565b9050919050565b6000611be582611bb8565b9050919050565b6000611bf782611bda565b9050919050565b611c0781611bec565b82525050565b6000602082019050611c226000830184611bfe565b92915050565b7f4e487b7100000000000000000000000000000000000000000000000000000000600052601160045260246000fd5b6000611c6282611919565b9150611c6d83611919565b9250828202611c7b81611919565b91508282048414831517611c9257611c91611c28565b5b5092915050565b7f4e487b7100000000000000000000000000000000000000000000000000000000600052601260045260246000fd5b6000611cd382611919565b9150611cde83611919565b925082611cee57611ced611c99565b5b828204905092915050565b6000604082019050611d0e6000830185611a41565b611d1b6020830184611a6b565b9392505050565b60008115159050919050565b611d3781611d22565b8114611d4257600080fd5b50565b600081519050611d5481611d2e565b92915050565b600060208284031215611d7057611d6f611914565b5b6000611d7e84828501611d45565b91505092915050565b6000611d9282611919565b9150611d9d83611919565b9250828201905080821115611db557611db4611c28565b5b92915050565b6000611dc682611919565b9150611dd183611919565b9250828203905081811115611de957611de8611c28565b5b92915050565b7f546f6b656e20726573657276657320776173206e6f7420300000000000000000600082015250565b6000611e25601883611b07565b9150611e3082611def565b602082019050919050565b60006020820190508181036000830152611e5481611e18565b9050919050565b7f45544820726573657276657320776173206e6f7420302e000000000000000000600082015250565b6000611e91601783611b07565b9150611e9c82611e5b565b602082019050919050565b60006020820190508181036000830152611ec081611e84565b9050919050565b7f4e6565642065746820746f2063726561746520706f6f6c2e0000000000000000600082015250565b6000611efd601883611b07565b9150611f0882611ec7565b602082019050919050565b60006020820190508181036000830152611f2c81611ef0565b9050919050565b600081519050611f4281611923565b92915050565b600060208284031215611f5e57611f5d611914565b5b6000611f6c84828501611f33565b91505092915050565b7f4e6f74206861766520656e6f75676820746f6b656e7320746f2063726561746560008201527f2074686520706f6f6c0000000000000000000000000000000000000000000000602082015250565b6000611fd1602983611b07565b9150611fdc82611f75565b604082019050919050565b6000602082019050818103600083015261200081611fc4565b9050919050565b7f4e65656420746f6b656e7320746f2063726561746520706f6f6c2e0000000000600082015250565b600061203d601b83611b07565b915061204882612007565b602082019050919050565b6000602082019050818103600083015261206c81612030565b9050919050565b60006060820190506120886000830186611a41565b6120956020830185611a41565b6120a26040830184611a6b565b949350505050565b7f4e487b7100000000000000000000000000000000000000000000000000000000600052603260045260246000fd5b60006120e482611919565b91507fffffffffffffffffffffffffffffffffffffffffffffffffffffffffffffffff820361211657612115611c28565b5b600182019050919050565b7f4f776e61626c653a206e6577206f776e657220697320746865207a65726f206160008201527f6464726573730000000000000000000000000000000000000000000000000000602082015250565b600061217d602683611b07565b915061218882612121565b604082019050919050565b600060208201905081810360008301526121ac81612170565b9050919050565b7f4e487b7100000000000000000000000000000000000000000000000000000000600052602260045260246000fd5b600060028204905060018216806121fa57607f821691505b60208210810361220d5761220c6121b3565b5b50919050565b7f4f776e61626c653a2063616c6c6572206973206e6f7420746865206f776e6572600082015250565b6000612249602083611b07565b915061225482612213565b602082019050919050565b600060208201905081810360008301526122788161223c565b9050919050565b7f73706563696669656420696e646578206973206c6172676572207468616e207460008201527f6865206e756d626572206f66206c707300000000000000000000000000000000602082015250565b60006122db603083611b07565b91506122e68261227f565b604082019050919050565b6000602082019050818103600083015261230a816122ce565b9050919050565b7f4e487b7100000000000000000000000000000000000000000000000000000000600052603160045260246000fdfea2646970667358221220a088096cf1c0900a2d70442e3b405eabe22f3a79c7738178a89b8896527650d364736f6c63430008110033",
  "linkReferences": {},
  "deployedLinkReferences": {}
}