{
  "_format": "hh-sol-artifact-1",
  "contractName": "TokenExchange",
  "sourceName": "contracts/exchange.sol",
  "abi": [
    {
      "inputs": [],
      "stateMutability": "nonpayable",
      "type": "constructor"
    },
    {
      "anonymous": false,
      "inputs": [
        {
          "indexed": true,
          "internalType": "address",
          "name": "previousOwner",
          "type": "address"
        },
        {
          "indexed": true,
          "internalType": "address",
          "name": "newOwner",
          "type": "address"
        }
      ],
      "name": "OwnershipTransferred",
      "type": "event"
    },
    {
      "inputs": [
        {
          "internalType": "uint256",
          "name": "max_exchange_rate",
          "type": "uint256"
        },
        {
          "internalType": "uint256",
          "name": "min_exchange_rate",
          "type": "uint256"
        }
      ],
      "name": "addLiquidity",
      "outputs": [],
      "stateMutability": "payable",
      "type": "function"
    },
    {
      "inputs": [
        {
          "internalType": "uint256",
          "name": "amountTokens",
          "type": "uint256"
        }
      ],
      "name": "createPool",
      "outputs": [],
      "stateMutability": "payable",
      "type": "function"
    },
    {
      "inputs": [],
      "name": "exchange_name",
      "outputs": [
        {
          "internalType": "string",
          "name": "",
          "type": "string"
        }
      ],
      "stateMutability": "view",
      "type": "function"
    },
    {
      "inputs": [],
      "name": "getSwapFee",
      "outputs": [
        {
          "internalType": "uint256",
          "name": "",
          "type": "uint256"
        },
        {
          "internalType": "uint256",
          "name": "",
          "type": "uint256"
        }
      ],
      "stateMutability": "view",
      "type": "function"
    },
    {
      "inputs": [],
      "name": "owner",
      "outputs": [
        {
          "internalType": "address",
          "name": "",
          "type": "address"
        }
      ],
      "stateMutability": "view",
      "type": "function"
    },
    {
      "inputs": [
        {
          "internalType": "uint256",
          "name": "max_exchange_rate",
          "type": "uint256"
        },
        {
          "internalType": "uint256",
          "name": "min_exchange_rate",
          "type": "uint256"
        }
      ],
      "name": "removeAllLiquidity",
      "outputs": [],
      "stateMutability": "payable",
      "type": "function"
    },
    {
      "inputs": [
        {
          "internalType": "uint256",
          "name": "amountETH",
          "type": "uint256"
        },
        {
          "internalType": "uint256",
          "name": "max_exchange_rate",
          "type": "uint256"
        },
        {
          "internalType": "uint256",
          "name": "min_exchange_rate",
          "type": "uint256"
        }
      ],
      "name": "removeLiquidity",
      "outputs": [],
      "stateMutability": "payable",
      "type": "function"
    },
    {
      "inputs": [],
      "name": "renounceOwnership",
      "outputs": [],
      "stateMutability": "nonpayable",
      "type": "function"
    },
    {
      "inputs": [
        {
          "internalType": "uint256",
          "name": "max_exchange_rate",
          "type": "uint256"
        }
      ],
      "name": "swapETHForTokens",
      "outputs": [],
      "stateMutability": "payable",
      "type": "function"
    },
    {
      "inputs": [
        {
          "internalType": "uint256",
          "name": "amountTokens",
          "type": "uint256"
        },
        {
          "internalType": "uint256",
          "name": "max_exchange_rate",
          "type": "uint256"
        }
      ],
      "name": "swapTokensForETH",
      "outputs": [],
      "stateMutability": "payable",
      "type": "function"
    },
    {
      "inputs": [],
      "name": "token",
      "outputs": [
        {
          "internalType": "contract Token",
          "name": "",
          "type": "address"
        }
      ],
      "stateMutability": "view",
      "type": "function"
    },
    {
      "inputs": [
        {
          "internalType": "address",
          "name": "newOwner",
          "type": "address"
        }
      ],
      "name": "transferOwnership",
      "outputs": [],
      "stateMutability": "nonpayable",
      "type": "function"
    }
  ],
  "bytecode": "0x60806040526040518060400160405280600a81526020017f4d7945786368616e676500000000000000000000000000000000000000000000815250600190816200004a919062000491565b50735fbdb2315678afecb367f032d93f642f64180aa3600260006101000a81548173ffffffffffffffffffffffffffffffffffffffff021916908373ffffffffffffffffffffffffffffffffffffffff160217905550600260009054906101000a900473ffffffffffffffffffffffffffffffffffffffff16600360006101000a81548173ffffffffffffffffffffffffffffffffffffffff021916908373ffffffffffffffffffffffffffffffffffffffff16021790555060006004556000600555600560085560646009553480156200012457600080fd5b5062000145620001396200014b60201b60201c565b6200015360201b60201c565b62000578565b600033905090565b60008060009054906101000a900473ffffffffffffffffffffffffffffffffffffffff169050816000806101000a81548173ffffffffffffffffffffffffffffffffffffffff021916908373ffffffffffffffffffffffffffffffffffffffff1602179055508173ffffffffffffffffffffffffffffffffffffffff168173ffffffffffffffffffffffffffffffffffffffff167f8be0079c531659141344cd1fd0a4f28419497f9722a3daafe3b4186f6b6457e060405160405180910390a35050565b600081519050919050565b7f4e487b7100000000000000000000000000000000000000000000000000000000600052604160045260246000fd5b7f4e487b7100000000000000000000000000000000000000000000000000000000600052602260045260246000fd5b600060028204905060018216806200029957607f821691505b602082108103620002af57620002ae62000251565b5b50919050565b60008190508160005260206000209050919050565b60006020601f8301049050919050565b600082821b905092915050565b600060088302620003197fffffffffffffffffffffffffffffffffffffffffffffffffffffffffffffffff82620002da565b620003258683620002da565b95508019841693508086168417925050509392505050565b6000819050919050565b6000819050919050565b6000620003726200036c62000366846200033d565b62000347565b6200033d565b9050919050565b6000819050919050565b6200038e8362000351565b620003a66200039d8262000379565b848454620002e7565b825550505050565b600090565b620003bd620003ae565b620003ca81848462000383565b505050565b5b81811015620003f257620003e6600082620003b3565b600181019050620003d0565b5050565b601f82111562000441576200040b81620002b5565b6200041684620002ca565b8101602085101562000426578190505b6200043e6200043585620002ca565b830182620003cf565b50505b505050565b600082821c905092915050565b6000620004666000198460080262000446565b1980831691505092915050565b600062000481838362000453565b9150826002028217905092915050565b6200049c8262000217565b67ffffffffffffffff811115620004b857620004b762000222565b5b620004c4825462000280565b620004d1828285620003f6565b600060209050601f831160018114620005095760008415620004f4578287015190505b62000500858262000473565b86555062000570565b601f1984166200051986620002b5565b60005b8281101562000543578489015182556001820191506020850194506020810190506200051c565b868310156200056357848901516200055f601f89168262000453565b8355505b6001600288020188555050505b505050505050565b6123c480620005886000396000f3fe6080604052600436106100a75760003560e01c80639cd441da116100645780639cd441da1461015e578063a22280a61461017a578063d4cadf6814610196578063f2fde38b146101c2578063f694f7d1146101eb578063fc0c546a14610216576100a7565b80632eab2841146100ac57806358ad6de4146100c8578063715018a6146100e45780638259e6a0146100fb578063857620e1146101175780638da5cb5b14610133575b600080fd5b6100c660048036038101906100c1919061199d565b610241565b005b6100e260048036038101906100dd91906119ca565b6103b5565b005b3480156100f057600080fd5b506100f961041d565b005b6101156004803603810190610110919061199d565b610431565b005b610131600480360381019061012c9190611a0a565b610792565b005b34801561013f57600080fd5b50610148610d75565b6040516101559190611a9e565b60405180910390f35b610178600480360381019061017391906119ca565b610d9e565b005b610194600480360381019061018f91906119ca565b61132d565b005b3480156101a257600080fd5b506101ab611593565b6040516101b9929190611ac8565b60405180910390f35b3480156101ce57600080fd5b506101e960048036038101906101e49190611b1d565b6115a4565b005b3480156101f757600080fd5b50610200611627565b60405161020d9190611bda565b60405180910390f35b34801561022257600080fd5b5061022b6116b5565b6040516102389190611c5b565b60405180910390f35b806004546005546103e86102559190611ca5565b61025f9190611d16565b111561026a57600080fd5b60006005546004546103e861027f9190611ca5565b6102899190611d16565b905060006009546008546009546102a09190611d47565b6103e884346102af9190611ca5565b6102b99190611d16565b6102c39190611ca5565b6102cd9190611d16565b905060045481106102dd57600080fd5b600360009054906101000a900473ffffffffffffffffffffffffffffffffffffffff1673ffffffffffffffffffffffffffffffffffffffff1663a9059cbb33836040518363ffffffff1660e01b815260040161033a929190611d7b565b6020604051808303816000875af1158015610359573d6000803e3d6000fd5b505050506040513d601f19601f8201168201806040525081019061037d9190611ddc565b5034600560008282546103909190611e09565b9250508190555080600460008282546103a99190611d47565b92505081905550505050565b6104196103e8600554600660003373ffffffffffffffffffffffffffffffffffffffff1673ffffffffffffffffffffffffffffffffffffffff168152602001908152602001600020546104089190611ca5565b6104129190611d16565b8383610792565b5050565b6104256116db565b61042f6000611759565b565b6104396116db565b60006004541461047e576040517f08c379a000000000000000000000000000000000000000000000000000000000815260040161047590611e89565b60405180910390fd5b6000600554146104c3576040517f08c379a00000000000000000000000000000000000000000000000000000000081526004016104ba90611ef5565b60405180910390fd5b60003411610506576040517f08c379a00000000000000000000000000000000000000000000000000000000081526004016104fd90611f61565b60405180910390fd5b6000600360009054906101000a900473ffffffffffffffffffffffffffffffffffffffff1673ffffffffffffffffffffffffffffffffffffffff166370a08231336040518263ffffffff1660e01b81526004016105639190611a9e565b602060405180830381865afa158015610580573d6000803e3d6000fd5b505050506040513d601f19601f820116820180604052508101906105a49190611f96565b9050808211156105e9576040517f08c379a00000000000000000000000000000000000000000000000000000000081526004016105e090612035565b60405180910390fd5b6000821161062c576040517f08c379a0000000000000000000000000000000000000000000000000000000008152600401610623906120a1565b60405180910390fd5b600360009054906101000a900473ffffffffffffffffffffffffffffffffffffffff1673ffffffffffffffffffffffffffffffffffffffff166323b872dd3330856040518463ffffffff1660e01b815260040161068b939291906120c1565b6020604051808303816000875af11580156106aa573d6000803e3d6000fd5b505050506040513d601f19601f820116820180604052508101906106ce9190611ddc565b50600360009054906101000a900473ffffffffffffffffffffffffffffffffffffffff1673ffffffffffffffffffffffffffffffffffffffff166370a08231306040518263ffffffff1660e01b815260040161072a9190611a9e565b602060405180830381865afa158015610747573d6000803e3d6000fd5b505050506040513d601f19601f8201168201806040525081019061076b9190611f96565b600481905550346005819055506005546004546107889190611ca5565b600a819055505050565b60055483106107a057600080fd5b600554600660003373ffffffffffffffffffffffffffffffffffffffff1673ffffffffffffffffffffffffffffffffffffffff168152602001908152602001600020546107ed9190611ca5565b6103e8846107fb9190611ca5565b111561080657600080fd5b60006005546004546103e861081b9190611ca5565b6108259190611d16565b90508281111561083457600080fd5b8181101561084157600080fd5b60006103e882866108529190611ca5565b61085c9190611d16565b9050600454811061086c57600080fd5b600454600660003373ffffffffffffffffffffffffffffffffffffffff1673ffffffffffffffffffffffffffffffffffffffff168152602001908152602001600020546108b99190611ca5565b6103e8826108c79190611ca5565b11156108d257600080fd5b600360009054906101000a900473ffffffffffffffffffffffffffffffffffffffff1673ffffffffffffffffffffffffffffffffffffffff1663a9059cbb33836040518363ffffffff1660e01b815260040161092f929190611d7b565b6020604051808303816000875af115801561094e573d6000803e3d6000fd5b505050506040513d601f19601f820116820180604052508101906109729190611ddc565b503373ffffffffffffffffffffffffffffffffffffffff166108fc869081150290604051600060405180830381858888f193505050501580156109b9573d6000803e3d6000fd5b5084600560008282546109cc9190611d47565b9250508190555080600460008282546109e59190611d47565b925050819055506000805b600780549050811015610bae573373ffffffffffffffffffffffffffffffffffffffff1660078281548110610a2857610a276120f8565b5b9060005260206000200160009054906101000a900473ffffffffffffffffffffffffffffffffffffffff1673ffffffffffffffffffffffffffffffffffffffff1614610b975782600454610a7c9190611d47565b6004546006600060078581548110610a9757610a966120f8565b5b9060005260206000200160009054906101000a900473ffffffffffffffffffffffffffffffffffffffff1673ffffffffffffffffffffffffffffffffffffffff1673ffffffffffffffffffffffffffffffffffffffff16815260200190815260200160002054610b079190611ca5565b610b119190611d16565b6006600060078481548110610b2957610b286120f8565b5b9060005260206000200160009054906101000a900473ffffffffffffffffffffffffffffffffffffffff1673ffffffffffffffffffffffffffffffffffffffff1673ffffffffffffffffffffffffffffffffffffffff16815260200190815260200160002081905550610b9b565b8091505b8080610ba690612127565b9150506109f0565b506004546103e883610bc09190611ca5565b83600454610bce9190611e09565b600660003373ffffffffffffffffffffffffffffffffffffffff1673ffffffffffffffffffffffffffffffffffffffff16815260200190815260200160002054610c189190611ca5565b610c229190611d47565b610c2c9190611d16565b600660003373ffffffffffffffffffffffffffffffffffffffff1673ffffffffffffffffffffffffffffffffffffffff16815260200190815260200160002081905550600360009054906101000a900473ffffffffffffffffffffffffffffffffffffffff1673ffffffffffffffffffffffffffffffffffffffff166370a08231306040518263ffffffff1660e01b8152600401610cca9190611a9e565b602060405180830381865afa158015610ce7573d6000803e3d6000fd5b505050506040513d601f19601f82011682018060405250810190610d0b9190611f96565b47610d169190611ca5565b600a819055506000600660003373ffffffffffffffffffffffffffffffffffffffff1673ffffffffffffffffffffffffffffffffffffffff1681526020019081526020016000205403610d6d57610d6c8161181d565b5b505050505050565b60008060009054906101000a900473ffffffffffffffffffffffffffffffffffffffff16905090565b60006005546004546103e8610db39190611ca5565b610dbd9190611d16565b905082811115610dcc57600080fd5b81811015610dd957600080fd5b60006103e88234610dea9190611ca5565b610df49190611d16565b905080600360009054906101000a900473ffffffffffffffffffffffffffffffffffffffff1673ffffffffffffffffffffffffffffffffffffffff166370a08231336040518263ffffffff1660e01b8152600401610e529190611a9e565b602060405180830381865afa158015610e6f573d6000803e3d6000fd5b505050506040513d601f19601f82011682018060405250810190610e939190611f96565b1015610e9e57600080fd5b600360009054906101000a900473ffffffffffffffffffffffffffffffffffffffff1673ffffffffffffffffffffffffffffffffffffffff166323b872dd3330846040518463ffffffff1660e01b8152600401610efd939291906120c1565b6020604051808303816000875af1158015610f1c573d6000803e3d6000fd5b505050506040513d601f19601f82011682018060405250810190610f409190611ddc565b503460056000828254610f539190611e09565b925050819055508060046000828254610f6c9190611e09565b9250508190555060006001905060005b60078054905081101561113b573373ffffffffffffffffffffffffffffffffffffffff1660078281548110610fb457610fb36120f8565b5b9060005260206000200160009054906101000a900473ffffffffffffffffffffffffffffffffffffffff1673ffffffffffffffffffffffffffffffffffffffff1614611123576004548360045461100b9190611d47565b6006600060078581548110611023576110226120f8565b5b9060005260206000200160009054906101000a900473ffffffffffffffffffffffffffffffffffffffff1673ffffffffffffffffffffffffffffffffffffffff1673ffffffffffffffffffffffffffffffffffffffff168152602001908152602001600020546110939190611ca5565b61109d9190611d16565b60066000600784815481106110b5576110b46120f8565b5b9060005260206000200160009054906101000a900473ffffffffffffffffffffffffffffffffffffffff1673ffffffffffffffffffffffffffffffffffffffff1673ffffffffffffffffffffffffffffffffffffffff16815260200190815260200160002081905550611128565b600091505b808061113390612127565b915050610f7c565b506004548260045461114d9190611d47565b600660003373ffffffffffffffffffffffffffffffffffffffff1673ffffffffffffffffffffffffffffffffffffffff168152602001908152602001600020546111979190611ca5565b6111a19190611d16565b600454836103e86111b29190611ca5565b6111bc9190611d16565b6111c69190611e09565b600660003373ffffffffffffffffffffffffffffffffffffffff1673ffffffffffffffffffffffffffffffffffffffff16815260200190815260200160002081905550600360009054906101000a900473ffffffffffffffffffffffffffffffffffffffff1673ffffffffffffffffffffffffffffffffffffffff166370a08231306040518263ffffffff1660e01b81526004016112649190611a9e565b602060405180830381865afa158015611281573d6000803e3d6000fd5b505050506040513d601f19601f820116820180604052508101906112a59190611f96565b476112b09190611ca5565b600a819055506001151581151503611326576007339080600181540180825580915050600190039060005260206000200160009091909190916101000a81548173ffffffffffffffffffffffffffffffffffffffff021916908373ffffffffffffffffffffffffffffffffffffffff1602179055505b5050505050565b806005546004546103e86113419190611ca5565b61134b9190611d16565b111561135657600080fd5b60006004546005546103e861136b9190611ca5565b6113759190611d16565b9050600060095460085460095461138c9190611d47565b6103e8848761139b9190611ca5565b6113a59190611d16565b6113af9190611ca5565b6113b99190611d16565b905083600360009054906101000a900473ffffffffffffffffffffffffffffffffffffffff1673ffffffffffffffffffffffffffffffffffffffff166370a08231336040518263ffffffff1660e01b81526004016114179190611a9e565b602060405180830381865afa158015611434573d6000803e3d6000fd5b505050506040513d601f19601f820116820180604052508101906114589190611f96565b101561146357600080fd5b600554811061147157600080fd5b3373ffffffffffffffffffffffffffffffffffffffff166108fc829081150290604051600060405180830381858888f193505050501580156114b7573d6000803e3d6000fd5b50600360009054906101000a900473ffffffffffffffffffffffffffffffffffffffff1673ffffffffffffffffffffffffffffffffffffffff166323b872dd3330876040518463ffffffff1660e01b8152600401611517939291906120c1565b6020604051808303816000875af1158015611536573d6000803e3d6000fd5b505050506040513d601f19601f8201168201806040525081019061155a9190611ddc565b50806005600082825461156d9190611d47565b9250508190555083600460008282546115869190611e09565b9250508190555050505050565b600080600854600954915091509091565b6115ac6116db565b600073ffffffffffffffffffffffffffffffffffffffff168173ffffffffffffffffffffffffffffffffffffffff160361161b576040517f08c379a0000000000000000000000000000000000000000000000000000000008152600401611612906121e1565b60405180910390fd5b61162481611759565b50565b6001805461163490612230565b80601f016020809104026020016040519081016040528092919081815260200182805461166090612230565b80156116ad5780601f10611682576101008083540402835291602001916116ad565b820191906000526020600020905b81548152906001019060200180831161169057829003601f168201915b505050505081565b600360009054906101000a900473ffffffffffffffffffffffffffffffffffffffff1681565b6116e361195a565b73ffffffffffffffffffffffffffffffffffffffff16611701610d75565b73ffffffffffffffffffffffffffffffffffffffff1614611757576040517f08c379a000000000000000000000000000000000000000000000000000000000815260040161174e906122ad565b60405180910390fd5b565b60008060009054906101000a900473ffffffffffffffffffffffffffffffffffffffff169050816000806101000a81548173ffffffffffffffffffffffffffffffffffffffff021916908373ffffffffffffffffffffffffffffffffffffffff1602179055508173ffffffffffffffffffffffffffffffffffffffff168173ffffffffffffffffffffffffffffffffffffffff167f8be0079c531659141344cd1fd0a4f28419497f9722a3daafe3b4186f6b6457e060405160405180910390a35050565b6007805490508110611864576040517f08c379a000000000000000000000000000000000000000000000000000000000815260040161185b9061233f565b60405180910390fd5b600760016007805490506118789190611d47565b81548110611889576118886120f8565b5b9060005260206000200160009054906101000a900473ffffffffffffffffffffffffffffffffffffffff16600782815481106118c8576118c76120f8565b5b9060005260206000200160006101000a81548173ffffffffffffffffffffffffffffffffffffffff021916908373ffffffffffffffffffffffffffffffffffffffff16021790555060078054806119225761192161235f565b5b6001900381819060005260206000200160006101000a81549073ffffffffffffffffffffffffffffffffffffffff0219169055905550565b600033905090565b600080fd5b6000819050919050565b61197a81611967565b811461198557600080fd5b50565b60008135905061199781611971565b92915050565b6000602082840312156119b3576119b2611962565b5b60006119c184828501611988565b91505092915050565b600080604083850312156119e1576119e0611962565b5b60006119ef85828601611988565b9250506020611a0085828601611988565b9150509250929050565b600080600060608486031215611a2357611a22611962565b5b6000611a3186828701611988565b9350506020611a4286828701611988565b9250506040611a5386828701611988565b9150509250925092565b600073ffffffffffffffffffffffffffffffffffffffff82169050919050565b6000611a8882611a5d565b9050919050565b611a9881611a7d565b82525050565b6000602082019050611ab36000830184611a8f565b92915050565b611ac281611967565b82525050565b6000604082019050611add6000830185611ab9565b611aea6020830184611ab9565b9392505050565b611afa81611a7d565b8114611b0557600080fd5b50565b600081359050611b1781611af1565b92915050565b600060208284031215611b3357611b32611962565b5b6000611b4184828501611b08565b91505092915050565b600081519050919050565b600082825260208201905092915050565b60005b83811015611b84578082015181840152602081019050611b69565b60008484015250505050565b6000601f19601f8301169050919050565b6000611bac82611b4a565b611bb68185611b55565b9350611bc6818560208601611b66565b611bcf81611b90565b840191505092915050565b60006020820190508181036000830152611bf48184611ba1565b905092915050565b6000819050919050565b6000611c21611c1c611c1784611a5d565b611bfc565b611a5d565b9050919050565b6000611c3382611c06565b9050919050565b6000611c4582611c28565b9050919050565b611c5581611c3a565b82525050565b6000602082019050611c706000830184611c4c565b92915050565b7f4e487b7100000000000000000000000000000000000000000000000000000000600052601160045260246000fd5b6000611cb082611967565b9150611cbb83611967565b9250828202611cc981611967565b91508282048414831517611ce057611cdf611c76565b5b5092915050565b7f4e487b7100000000000000000000000000000000000000000000000000000000600052601260045260246000fd5b6000611d2182611967565b9150611d2c83611967565b925082611d3c57611d3b611ce7565b5b828204905092915050565b6000611d5282611967565b9150611d5d83611967565b9250828203905081811115611d7557611d74611c76565b5b92915050565b6000604082019050611d906000830185611a8f565b611d9d6020830184611ab9565b9392505050565b60008115159050919050565b611db981611da4565b8114611dc457600080fd5b50565b600081519050611dd681611db0565b92915050565b600060208284031215611df257611df1611962565b5b6000611e0084828501611dc7565b91505092915050565b6000611e1482611967565b9150611e1f83611967565b9250828201905080821115611e3757611e36611c76565b5b92915050565b7f546f6b656e20726573657276657320776173206e6f7420300000000000000000600082015250565b6000611e73601883611b55565b9150611e7e82611e3d565b602082019050919050565b60006020820190508181036000830152611ea281611e66565b9050919050565b7f45544820726573657276657320776173206e6f7420302e000000000000000000600082015250565b6000611edf601783611b55565b9150611eea82611ea9565b602082019050919050565b60006020820190508181036000830152611f0e81611ed2565b9050919050565b7f4e6565642065746820746f2063726561746520706f6f6c2e0000000000000000600082015250565b6000611f4b601883611b55565b9150611f5682611f15565b602082019050919050565b60006020820190508181036000830152611f7a81611f3e565b9050919050565b600081519050611f9081611971565b92915050565b600060208284031215611fac57611fab611962565b5b6000611fba84828501611f81565b91505092915050565b7f4e6f74206861766520656e6f75676820746f6b656e7320746f2063726561746560008201527f2074686520706f6f6c0000000000000000000000000000000000000000000000602082015250565b600061201f602983611b55565b915061202a82611fc3565b604082019050919050565b6000602082019050818103600083015261204e81612012565b9050919050565b7f4e65656420746f6b656e7320746f2063726561746520706f6f6c2e0000000000600082015250565b600061208b601b83611b55565b915061209682612055565b602082019050919050565b600060208201905081810360008301526120ba8161207e565b9050919050565b60006060820190506120d66000830186611a8f565b6120e36020830185611a8f565b6120f06040830184611ab9565b949350505050565b7f4e487b7100000000000000000000000000000000000000000000000000000000600052603260045260246000fd5b600061213282611967565b91507fffffffffffffffffffffffffffffffffffffffffffffffffffffffffffffffff820361216457612163611c76565b5b600182019050919050565b7f4f776e61626c653a206e6577206f776e657220697320746865207a65726f206160008201527f6464726573730000000000000000000000000000000000000000000000000000602082015250565b60006121cb602683611b55565b91506121d68261216f565b604082019050919050565b600060208201905081810360008301526121fa816121be565b9050919050565b7f4e487b7100000000000000000000000000000000000000000000000000000000600052602260045260246000fd5b6000600282049050600182168061224857607f821691505b60208210810361225b5761225a612201565b5b50919050565b7f4f776e61626c653a2063616c6c6572206973206e6f7420746865206f776e6572600082015250565b6000612297602083611b55565b91506122a282612261565b602082019050919050565b600060208201905081810360008301526122c68161228a565b9050919050565b7f73706563696669656420696e646578206973206c6172676572207468616e207460008201527f6865206e756d626572206f66206c707300000000000000000000000000000000602082015250565b6000612329603083611b55565b9150612334826122cd565b604082019050919050565b600060208201905081810360008301526123588161231c565b9050919050565b7f4e487b7100000000000000000000000000000000000000000000000000000000600052603160045260246000fdfea2646970667358221220099c3dccb93df653704d8b8b9901f85312171b1ae5f2e2b311e7264510732e3e64736f6c63430008110033",
  "linkReferences": {},
  "deployedLinkReferences": {}
}